:020000040800F2
:100000000050002025020008750200087502000853
:100010007502000875020008750200080000000063
:100020000000000000000000000000007502000851
:100030007502000800000000750200087502000843
:1000400075020008750200087502000875020008B4
:1000500075020008750200087502000875020008A4
:100060007502000875020008750200087502000894
:100070007502000875020008750200087502000884
:100080007502000875020008750200087502000874
:100090007502000875020008750200087502000864
:1000A0007502000875020008750200087502000854
:1000B0007502000875020008750200087502000844
:1000C0007502000875020008750200087502000834
:1000D0007502000875020008750200087502000824
:1000E0007502000875020008000000007502000893
:1000F0007502000875020008750200087502000804
:1001000075020008750200087502000875020008F3
:1001100075020008750200087502000875020008E3
:1001200075020008750200087502000875020008D3
:1001300010B5054C237833B9044B13B10448AFF321
:1001400000800123237010BD00000020000000008B
:10015000C002000808B5034B1BB103490348AFF3C5
:10016000008008BD0000000004000020C00200085C
:1001700080B500AF00F002F8FEE7000080B400AFE9
:10018000254B9B69244A43F004039361234B1B686E
:10019000224A43F001031360204B1B681F4A43F0BF
:1001A000020313601D4B1B681C4A63F004031360B9
:1001B0001A4B1B68194A43F008031360184B5B681D
:1001C000174A23F480735360134BDB69124A43F0E0
:1001D0000103D3614FF0804340F23F629A624FF0D7
:1001E000804342F20F72DA624FF0804330229A610C
:1001F0004FF080431B6A4FF0804243F001031362CB
:100200004FF0804300225A624FF0804301221A606F
:1002100000BFBD4680BC704700100240000801408E
:10022000000001400D488546AFF300800C480D49A1
:100230000D4A002302E0D458C4500433C4188C4241
:10024000F9D30A4A0A4C002301E013600432A242A7
:10025000FBD300F011F8FFF78BFFFEE70050002002
:100260000000002000000020E00200080000002044
:100270001C000020FEE7000070B500260C4D0D4C60
:10028000641BA410A64209D100F01AF800260A4DFA
:100290000A4C641BA410A64205D170BD55F8043B5E
:1002A00098470136EEE755F8043B98470136F2E7E8
:1002B000D8020008D8020008D8020008DC020008B2
:1002C000F8B500BFF8BC08BC9E467047F8B500BF43
:0802D000F8BC08BC9E46704713
:0402D80055010008C4
:0402DC0031010008E4
:0400000508000225C8
:00000001FF
