:020000040800F2
:100000000050002051020008A1020008A1020008CF
:10001000A1020008A1020008A102000800000000DF
:10002000000000000000000000000000A102000825
:10003000A102000800000000A1020008A1020008BF
:10004000A1020008A1020008A1020008A102000804
:10005000A1020008A1020008A1020008A1020008F4
:10006000A1020008A1020008A1020008A1020008E4
:10007000A1020008A1020008A1020008A1020008D4
:10008000A1020008A1020008A1020008A1020008C4
:10009000A1020008A1020008A1020008A1020008B4
:1000A000A1020008A1020008A1020008A1020008A4
:1000B000A1020008A1020008A1020008A102000894
:1000C000A1020008A1020008A1020008A102000884
:1000D000A1020008A1020008A1020008A102000874
:1000E000A1020008A102000800000000A10200080F
:1000F000A1020008A1020008A1020008A102000854
:10010000A1020008A1020008A1020008A102000843
:10011000A1020008A1020008A1020008A102000833
:10012000A1020008A1020008A1020008A102000823
:1001300010B5054C237833B9044B13B10448AFF321
:1001400000800123237010BD00000020000000008B
:10015000EC02000808B5034B1BB103490348AFF399
:10016000008008BD0000000004000020EC02000830
:1001700080B400AF194B9B69184A43F004039361A4
:10018000174B1B68164A23F010031360144B1B68AF
:10019000134A23F020031360114B1B68104A23F00D
:1001A000400313600E4B1B680D4A23F0800313605D
:1001B0000A4B9B69094A43F400739361094B01227E
:1001C0005A63084B0022DA62064B9B68054A43F0EB
:1001D0000103936000BFBD4680BC70470010024021
:1001E000000801400024014080B400AF074B9B6829
:1001F000064A43F002039360044B9B68034A43F0B2
:100200008043936000BFBD4680BC7047002401401E
:1002100080B400AF00BF064B1B6803F00203002B45
:10022000F9D0034BDB6C1846BD4680BC704700BF5D
:100230000024014080B500AFFFF79AFFFFF7D4FF1D
:10024000FFF7E6FF0346014A1360F9E71C000020B0
:100250000D488546AFF300800C480D490D4A002338
:1002600002E0D458C4500433C4188C42F9D30A4A6B
:100270000A4C002301E013600432A242FBD300F0D9
:1002800011F8FFF7D7FFFEE7005000200000002024
:10029000000000200C0300080000002020000020C7
:1002A000FEE7000070B500260C4D0D4C641BA41039
:1002B000A64209D100F01AF800260A4D0A4C641B28
:1002C000A410A64205D170BD55F8043B98470136ED
:1002D000EEE755F8043B98470136F2E704030008BF
:1002E000040300080403000808030008F8B500BF71
:1002F000F8BC08BC9E467047F8B500BFF8BC08BC07
:040300009E4670475E
:040304005501000897
:0403080031010008B7
:04000005080002519C
:00000001FF
