:020000040800F2
:1000000000500020AD020008FD020008FD020008BB
:10001000FD020008FD020008FD02000800000000CB
:10002000000000000000000000000000FD020008C9
:10003000FD02000800000000FD020008FD020008AB
:10004000FD020008FD020008FD020008FD02000894
:10005000FD020008FD020008FD020008FD02000884
:10006000FD020008FD020008FD020008FD02000874
:10007000FD020008FD020008FD020008FD02000864
:10008000FD020008FD02000885020008FD020008CC
:10009000FD020008FD020008FD020008FD02000844
:1000A000FD020008FD020008FD020008FD02000834
:1000B000FD020008FD020008FD020008FD02000824
:1000C000FD020008FD020008FD020008FD02000814
:1000D000FD020008FD020008FD020008FD02000804
:1000E000FD020008FD02000800000000FD020008FB
:1000F000FD020008FD020008FD020008FD020008E4
:10010000FD020008FD020008FD020008FD020008D3
:10011000FD020008FD020008FD020008FD020008C3
:10012000FD020008FD020008FD020008FD020008B3
:1001300010B5054C237833B9044B13B10448AFF321
:1001400000800123237010BD00000020000000008B
:100150004803000808B5034B1BB103490348AFF33C
:10016000008008BD000000000400002048030008D3
:1001700080B483B000AF0346FB7197F90730002BC2
:100180000BDBFB7903F01F02064997F907305B0987
:10019000012000FA02F241F8232000BF0C37BD46CF
:1001A00080BC704700E100E080B500AF1D4B9B694B
:1001B0001C4A43F0040393611B4B1B681A4A23F04B
:1001C00010031360184B1B68174A23F020031360B9
:1001D000154B1B68144A23F040031360124B1B6835
:1001E000114A23F0800313600E4B9B690D4A43F4C0
:1001F000007393610D4B5B680C4A43F0200353601E
:100200001220FFF7B5FF094B01225A63074B00226A
:10021000DA62064B9B68054A43F00103936000BF16
:1002200080BD00BF001002400008014000240140D2
:1002300080B400AF074B9B68064A43F0020393600B
:10024000044B9B68034A43F08043936000BFBD4664
:1002500080BC70470024014080B500AFFFF7A4FFC9
:10026000FFF7E6FFFEE7000080B400AF034BDB6C56
:10027000034A136000BFBD4680BC704700240140A4
:100280001C00002080B500AF074B1B6803F0020381
:10029000002B07D0044B1B68034A43F00203136092
:1002A000FFF7E2FF00BF80BD002401400D488546F6
:1002B000AFF300800C480D490D4A002302E0D458EA
:1002C000C4500433C4188C42F9D30A4A0A4C0023A0
:1002D00001E013600432A242FBD300F011F8FFF7F3
:1002E000BBFFFEE7005000200000002000000020BF
:1002F000680300080000002020000020FEE7000046
:1003000070B500260C4D0D4C641BA410A64209D1FB
:1003100000F01AF800260A4D0A4C641BA410A642ED
:1003200005D170BD55F8043B98470136EEE755F806
:10033000043B98470136F2E76003000860030008B9
:100340006003000864030008F8B500BFF8BC08BCEF
:100350009E467047F8B500BFF8BC08BC9E46704783
:04036000550100083B
:04036400310100085B
:04000005080002AD40
:00000001FF
