:020000040800F2
:1000000000500020450200089502000895020008F3
:100010009502000895020008950200080000000003
:100020000000000000000000000000009502000831
:1000300095020008000000009502000895020008E3
:100040009502000895020008950200089502000834
:100050009502000895020008950200089502000824
:100060009502000895020008950200089502000814
:100070009502000895020008950200089502000804
:1000800095020008950200089502000895020008F4
:1000900095020008950200089502000895020008E4
:1000A00095020008950200089502000895020008D4
:1000B00095020008950200089502000895020008C4
:1000C00095020008950200089502000895020008B4
:1000D00095020008950200089502000895020008A4
:1000E0009502000895020008000000009502000833
:1000F0009502000895020008950200089502000884
:100100009502000895020008950200089502000873
:100110009502000895020008950200089502000863
:100120009502000895020008950200089502000853
:1001300010B5054C237833B9044B13B10448AFF321
:1001400000800123237010BD00000020000000008B
:10015000E002000808B5034B1BB103490348AFF3A5
:10016000008008BD0000000004000020E00200083C
:1001700080B400AF194B9B69184A43F004039361A4
:10018000174B1B68164A23F010031360144B1B68AF
:10019000134A23F020031360114B1B68104A23F00D
:1001A000400313600E4B1B680D4A23F0800313605D
:1001B0000A4B9B69094A43F400739361094B01227E
:1001C0005A63084B0022DA62064B9B68054A43F0EB
:1001D0000103936000BFBD4680BC70470010024021
:1001E000000801400024014080B400AF044B9B682C
:1001F000034A43F08043936000BFBD4680BC704714
:100200000024014080B400AF00BF064B1B6803F020
:100210000203002BF9D0034BDB6C1846BD4680BCB3
:10022000704700BF0024014080B500AFFFF7A0FF7A
:10023000FFF7DAFFFFF7E6FF0346014A1360F7E72F
:100240001C0000200D488546AFF300800C480D4986
:100250000D4A002302E0D458C4500433C4188C4221
:10026000F9D30A4A0A4C002301E013600432A24287
:10027000FBD300F011F8FFF7D7FFFEE70050002096
:100280000000002000000020000300080000002003
:1002900020000020FEE7000070B500260C4D0D4C3C
:1002A000641BA410A64209D100F01AF800260A4DDA
:1002B0000A4C641BA410A64205D170BD55F8043B3E
:1002C00098470136EEE755F8043B98470136F2E7C8
:1002D000F8020008F8020008F8020008FC02000812
:1002E000F8B500BFF8BC08BC9E467047F8B500BF23
:0802F000F8BC08BC9E467047F3
:0402F80055010008A4
:0402FC0031010008C4
:0400000508000245A8
:00000001FF
