:020000040800F2
:1000000000500020E103000831040008310400081A
:100010003104000831040008310400080000000029
:100020000000000000000000000000003104000893
:100030003104000800000000310400083104000809
:1000400031040008310400083104000831040008BC
:1000500031040008310400083104000831040008AC
:10006000310400083104000831040008310400089C
:10007000310400083104000831040008310400088C
:10008000310400083104000831040008310400087C
:10009000310400083104000831040008310400086C
:1000A000310400083104000831040008310400085C
:1000B000310400083104000831040008310400084C
:1000C000310400083104000831040008310400083C
:1000D000310400083104000831040008310400082C
:1000E0003104000831040008000000003104000859
:1000F000310400083104000831040008310400080C
:1001000031040008310400083104000831040008FB
:1001100031040008310400083104000831040008EB
:1001200031040008310400083104000831040008DB
:1001300010B5054C237833B9044B13B10448AFF321
:1001400000800123237010BD5C000020000000002F
:10015000B412000808B5034B1BB103490348AFF3C1
:10016000008008BD0000000060000020B4120008FC
:1001700080B500AF00F0B2F8014800F01DFAFBE7CF
:10018000CC12000880B586B000AFF860B9607A6024
:1001900000237B610AE0AFF300800146BB685A1C74
:1001A000BA60CAB21A707B6901337B617A697B6875
:1001B0009A42F0DB7B6818461837BD4680BD80B593
:1001C00086B000AFF860B9607A6000237B6109E017
:1001D000BB685A1CBA601B78184600F073F87B693C
:1001E00001337B617A697B689A42F1DB7B68184650
:1001F0001837BD4680BD80B483B000AF78604FF043
:10020000FF3318460C37BD4680BC704780B483B0BE
:1002100000AF786039603B684FF400525A600023A9
:1002200018460C37BD4680BC704780B483B000AF21
:100230007860012318460C37BD4680BC704780B4F7
:1002400085B000AFF860B9607A60002318461437B3
:10025000BD4680BC7047000080B586B000AF7860B6
:10026000144A154BD31A7B617B693B61134B1B68A6
:10027000002B02D1114B124A1A60104B1A687B688E
:1002800013443A699A4207D200F03AFA03460C2224
:100290001A604FF0FF3309E0084B1B68FB60074B07
:1002A0001A687B681344054A1360FB6818461837C0
:1002B000BD4680BD005000200004000078000020F2
:1002C000C801002080B582B000AF7860786800F087
:1002D0004DF87B6818460837BD4680BD80B500AF35
:1002E0001D4B9B691C4A43F0040393611B4B5B68E5
:1002F0001A4A43F010035360184B5B68174A43F0E7
:1003000020035360154B5B68144A23F0400353608D
:10031000124B5B68114A43F080035360104B5B68DB
:100320000F4A23F0040353600B4B9B690A4A43F4C2
:10033000005393614FF4E1320A490B4800F02CF866
:10034000094B0822DA60084BDB68074A43F4005384
:10035000D36000BF80BD00BF001002400008014014
:10036000000001400024F4000038014080B483B054
:1003700000AF786000BF074B1B6803F08003002BC1
:10038000F9D07B68034ADBB2536000BF0C37BD462F
:1003900080BC70470038014080B584B000AFF86081
:1003A000B9607A607968B86800F008F803461A46C0
:1003B000FB689A6000BF1037BD4680BD80B483B033
:1003C00000AF786039603B685A087B681A443B6824
:1003D000B2FBF3F39BB218460C37BD4680BC7047A6
:1003E0000D488546AFF300800C480D490D4A0023A7
:1003F00002E0D458C4500433C4188C42F9D30A4ADA
:100400000A4C002301E013600432A242FBD300F047
:100410007DF9FFF7ADFEFEE7005000200000002050
:100420005C000020181300085C000020C8010020B8
:10043000FEE70000002310B50446C0E90033C0E920
:100440000433836081814366C28183611946082237
:100450005C3000F006F90D4B246263620C4BA36222
:100460000C4BE3620C4B23630C4B9C4206D003F114
:100470006802944202D0D0339C4205D104F1580066
:10048000BDE8104000F066B910BD00BFDD050008F2
:10049000FF050008370600085B0600087C00002006
:1004A000024A0349034800F069B800BF0000002079
:1004B000F50F00080C00002041680C4B10B5994264
:1004C000044601D000F096FDA168094B994202D084
:1004D000204600F08FFDE168064B994204D020468B
:1004E000BDE8104000F086BD10BD00BF7C000020BC
:1004F000E40000204C01002010B50B4B0B4C0C4AC3
:1005000020461A6004210022FFF794FF04F16800DE
:1005100001220921FFF78EFF04F1D0000222BDE87D
:1005200010401221FFF786BFB40100207C0000209C
:10053000A1040008014800F00EB900BFBD01002071
:10054000014800F009B900BFBD01002010B5044604
:10055000FFF7F0FF236A1BB1BDE81040FFF7F0BFC3
:10056000044B2362044B1B68002BF5D1FFF7C4FF3B
:10057000F2E700BFB9040008B40100202DE9F843F8
:100580000746884614460026D4E90195B9F10109C9
:1005900005D52468002CF7D13046BDE8F883AB8937
:1005A000012B07D9B5F90E30013303D0294638465F
:1005B000C04706436835E9E70FB407B5064904AB01
:1005C000086853F8042B8168019300F0E3F903B045
:1005D0005DF804EB04B070475800002010B50C46DD
:1005E000B1F90E1000F068F80028ABBF636DA38965
:1005F0001B1823F48053ACBF6365A38110BD2DE9A4
:10060000F0411F468B890546DB050C46164605D58D
:1006100002230022B1F90E1000F03CF8A389324603
:1006200023F48053A38128463B46B4F90E10BDE85D
:10063000F04100F053B810B50C46B1F90E1000F0BF
:1006400029F8431CA38915BF606523F4805343F444
:100650008053A38118BFA38110BDB1F90E1000F023
:1006600009B803460244934200D1704703F8011BC6
:10067000F9E7000038B50023054D044608462B6015
:10068000FFF7B9FD431C02D12B6803B1236038BDCD
:10069000B801002038B50446084611460022054D31
:1006A0002A601A46FFF7CBFD431C02D12B6803B129
:1006B000236038BDB801002038B50446084611460D
:1006C0000022054D2A601A46FFF75CFD431C02D14B
:1006D0002B6803B1236038BDB801002038B504464B
:1006E000084611460022054D2A601A46FFF767FDAD
:1006F000431C02D12B6803B1236038BDB801002030
:10070000014B1868704700BF5800002070B50026E4
:100710000C4D0D4C641BA410A64209D100F0CAFD7B
:1007200000260A4D0A4C641BA410A64205D170BDD8
:1007300055F8043B98470136EEE755F8043B9847D7
:100740000136F2E710130008101300081013000818
:1007500014130008704770477047000038B505460D
:10076000002940D051F8043C0C1F002BB8BFE418FE
:1007700000F0DCF81C4A136833B963601460284643
:10078000BDE8384000F0D8B8A34208D92068211845
:100790008B4201BF19685B6809182160EDE71A46B2
:1007A0005B680BB1A342FAD911685018A0420BD173
:1007B00020680144501883421160E0D118685B68DA
:1007C000084410605360DAE702D90C232B60D6E7A7
:1007D000206821188B4201BF19685B6809182160E5
:1007E00063605460CBE738BDC001002070B50E4E89
:1007F0000C463168054611B900F0BAFC306021465C
:10080000284600F0B5FC431C0AD0C41C24F00304A5
:10081000A04207D0211A284600F0AAFC013001D1DD
:100820004FF0FF34204670BDC40100202DE9F8438D
:10083000CD1C25F0030508350C2D38BF0C25002DE7
:10084000074601DBA94205D90C2300263B60304650
:10085000BDE8F883DFF8D08000F068F8D8F8003001
:100860001C465CBB29463846FFF7C0FF431C0446C4
:1008700055D1D8F800402646002E45D1002C48D04E
:1008800023683146384604EB030900F071FC8145CA
:100890003FD1216838466D1A2946FFF7A7FF01307E
:1008A00037D023682B442360D8F80030002B38D091
:1008B0005A68A2422BD100225A600FE02268521BD4
:1008C0001FD40B2A17D96119A342256018BF59609C
:1008D000636808BFC8F8001062514B60384604F1E5
:1008E0000B0600F029F826F00706231DF21AAED0F9
:1008F0009B1BA350ABE7A3426268DDD1C8F8002080
:10090000ECE723466468ACE734467668B4E7134600
:10091000CCE70C2338463B6000F00EF897E72560E3
:10092000DCE75B60FFDE00BFC00100200148FFF78D
:1009300012BF00BFBC0100200148FFF70DBF00BF80
:10094000BC010020936810B4013B002B936007DAD0
:100950009469A34201DB0A2902D110BC00F072BBEA
:100960001368581C10601970084610BC7047F8B521
:1009700006460F461446D518AC4201D1002007E0C8
:100980003A46304614F8011BFFF7DCFF431CF3D155
:10099000F8BD00002DE9F04F0D4614469846064676
:1009A0009DB018B1036A0BB9FFF7D0FD6B6ED90784
:1009B00005D4AB899A0502D4A86DFFF7CCFEAB89AC
:1009C0001B0701D52B699BB92946304600F078FBFF
:1009D00070B16B6EDC0704D54FF0FF301DB0BDE881
:1009E000F08FAB899805F7D4A86DFFF7B5FEF3E754
:1009F0000023099320238DF8293030234FF001097B
:100A0000CDF80C80DFF8AC818DF82A3023469A4669
:100A100013F8012B0AB1252AF9D1BAEB040B0BD03C
:100A20005B46224629463046FFF7A1FF013000F021
:100A3000A980099A5A4409929AF80030002B00F0D4
:100A4000A18000234FF0FF32CDE905230AF1010A0E
:100A5000049307938DF853301A935446052214F8E3
:100A6000011B544800F094FB049AD8B9D10644BF46
:100A700020238DF85330130744BF2B238DF85330B8
:100A80009AF800302A2B15D0544600204FF00A0C5B
:100A9000079A214611F8013B303B092B4DD9B0B1E3
:100AA000079214E0A0EB080309FA03F31343A246EC
:100AB0000493D2E7039B191D1B680391002BBBBF56
:100AC0005B4242F0020207930793B8BF0492237877
:100AD0002E2B0CD163782A2B34D1039B02341A1DA0
:100AE0001B680392002BB8BF4FF0FF330593DFF86C
:100AF000C8A003225046217800F04AFB38B14022BA
:100B0000049BA0EB0A00824013430134049314F8C1
:100B1000011B062229488DF8281000F039FB002817
:100B20003FD0274B1BBB039B073323F0070308333E
:100B30000393099B3B44099368E70C4601200CFB97
:100B40000232A6E700234FF00A0C19460134059340
:100B5000204610F8012B303A092A03D9002BC6D0C1
:100B60000591C4E7044601230CFB0121F0E703AB28
:100B700000932A463046134B04A9AFF30080074682
:100B8000781CD6D16B6ED90705D4AB899A0502D4EF
:100B9000A86DFFF7E1FDAB895B063FF51DAF099836
:100BA0001CE703AB00932A463046064B04A900F02D
:100BB0007DF8E4E7DD120008E3120008E712000800
:100BC000000000006F0900082DE9F047164699461D
:100BD0008A680B6907469342B8BF1346336091F8A1
:100BE00043200C46DDF820800AB1013333602368CE
:100BF000990642BF336802333360256815F0060555
:100C000006D104F1190AE36832689B1AAB422BDC67
:100C100094F84320131E226818BF0123920630D493
:100C20004946384604F14302C047013023D02368C7
:100C3000226903F00603042B14BF002533684FF02C
:100C4000000608BFE56804F11A0408BFED1A54F85D
:100C5000123C08BF25EAE5759342C4BF9B1AED1804
:100C6000B5421AD1002008E00123524649463846D1
:100C7000C047013003D14FF0FF30BDE8F0870135A8
:100C8000C1E73020E11881F843005A1C94F8451060
:100C90002244023382F84310C2E701232246494628
:100CA0003846C0470130E6D00136D9E72DE9FF4785
:100CB0000F7E9146782F80460C469A460C9D01F196
:100CC000430207D8622F0AD8002F00F0D580582F92
:100CD00000F0C18004F1420584F842703AE0A7F1C7
:100CE0006303152BF6D801A151F823F0450D000838
:100CF000590D0008D50C0008D50C0008D50C0008CB
:100D0000D50C0008590D0008D50C0008D50C0008BA
:100D1000D50C0008D50C00085F0E0008850D0008F2
:100D2000190E0008D50C0008D50C0008810E00082B
:100D3000D50C0008850D0008D50C0008D50C00085E
:100D4000210E00082B681A1D1B682A6004F1420559
:100D500084F842300123A0E020682B68070603F1E5
:100D60000401296001D51E6803E04606FBD5B3F9EE
:100D70000060002E03DA2D23764284F843300A23E4
:100D8000594812E02B682068191D2960050601D515
:100D90001E6802E04106FBD51E886F2F0CBF08239A
:100DA0000A235148002184F843106568002DA8BF2C
:100DB0002168A560A4BF21F0040121600EB9002DB7
:100DC0004BD01546B6FBF3F103FB1167C75D05F881
:100DD000017D3746BB420E46F4D9082B0BD1236860
:100DE000DE0708D5236961689942DEBF302305F824
:100DF000013C05F1FF35521B22614B46214640461E
:100E0000CDF800A003AAFFF7DFFE01304AD14FF072
:100E1000FF3004B0BDE8F087236843F0200323606F
:100E20007827324884F84570236829681F0651F8EE
:100E3000046B02D45F0648BFB6B2DF0748BF43F079
:100E40002003296048BF23601EB9236823F02003D4
:100E500023601023A6E72448E4E71546BDE72B6886
:100E60002668181D6169286035061B6801D5196060
:100E700002E07006FBD51980002315462361BCE70C
:100E80002B6800211A1D2A601D686268284600F040
:100E90007FF908B1401B606063682361002384F818
:100EA0004330AAE72A46494640462369D0470130E5
:100EB000ADD023689B0713D4E068039B9842B8BF6A
:100EC0001846A6E70123324649464046D04701303E
:100ED0009DD00135E36803995B1AAB42F2DCEBE786
:100EE000002504F11906F5E7EE120008FF120008CC
:100EF0008A89F8B5054610070C4657D44B68002B75
:100F000004DC0B6C002B01DC0020F8BDE66A002E2F
:100F1000FAD0002312F480522F68216A2B6032D05D
:100F2000606DA3895A0705D56368C01A636B0BB15E
:100F3000236CC01A00230246E66A2846216AB0479D
:100F4000431CA38906D129681D292BD8284A0A41A8
:100F5000D60727D4002262602269D904226004D512
:100F6000421C01D12B6803B96065616B2F600029B9
:100F7000CAD004F14403994202D02846FFF7EEFBA1
:100F800000206063C1E701232846B047411CC8D157
:100F90002B68002BC5D01D2B01D0162B01D12F6043
:100FA000B2E7A38943F04003A381AEE70F69002FA6
:100FB000AAD0930718BF00230E6808BF4B69F61B21
:100FC0000F608B60002E9FDD33463A462846216A2B
:100FD000D4F828C0E047002806DCA3894FF0FF3092
:100FE00043F04003A38190E70744361AEAE700BFC5
:100FF000FEFFBFDF38B50B6905460C4613B9002567
:10100000284638BD18B1036A0BB9FFF79FFAB4F947
:101010000C30002BF3D0626ED00704D4990502D4B3
:10102000A06DFFF798FB28462146FFF761FF636E2E
:101030000546DA07E4D4A3899B05E1D4A06DFFF748
:101040008BFBDDE7F8B50E461446054618B1036A7A
:101050000BB9FFF77BFAA369A360A3891A0725D50B
:1010600023691BB323682269F6B2981A636937466D
:10107000834204DC21462846FFF7BCFFE0B9A368A1
:10108000013BA36023685A1C22601E706269431CE6
:101090009A4204D0A389DB0706D50A2E04D1214643
:1010A0002846FFF7A7FF38B93846F8BD214628463D
:1010B00000F006F80028D5D04FF0FF37F4E7000025
:1010C00038B52A4B054618680C4618B1036A0BB9A7
:1010D000FFF73CFAA389B4F90C20180722D4D906EB
:1010E00007D409232B6042F040034FF0FF30A38167
:1010F00034E0580712D5616B41B104F144039942C1
:1011000002D02846FFF72AFB00236363A38923F05C
:101110002403A3810023636023692360A38943F030
:101120000803A38123694BB9A38903F42073B3F5A2
:10113000007F03D02146284600F05DF8A089B4F96D
:101140000C2010F001030AD00023A36063695B4206
:10115000A361236943B910F08000C4D138BD810771
:1011600058BF6369A360F4E70020F7E75800002048
:1011700038B50023054D044608462B60FFF76CF890
:10118000431C02D12B6803B1236038BDB801002095
:10119000034610B5C9B202449342184601D100205B
:1011A00003E0047801338C42F6D110BD70B50C46D3
:1011B000B1F90E10154600291E4696B00CDAA38927
:1011C000002113F0800F0CBF4FF4806340230020F8
:1011D00031602B6016B070BD6A4600F049F80028F7
:1011E000EDDB019901F47041A1F5005359425941D9
:1011F0004FF48063EBE78B8973B59D0706460C4679
:1012000007D504F14703236023610123636102B022
:1012100070BD6A4601ABFFF7C9FF0099054630462D
:10122000FFF704FB48B9B4F90C309A05EFD423F06A
:10123000030343F00203A381E3E7A389206043F0A3
:101240008003A381009B20616361019B5BB13046F9
:10125000B4F90E1000F01EF828B1A38923F003039F
:1012600043F00103A381A3891D43A581CFE70000BB
:1012700038B50023064D0446084611462B60FEF79C
:10128000C5FF431C02D12B6803B1236038BD00BFEA
:10129000B801002038B50023054D044608462B60F0
:1012A000FEF7C3FF431C02D12B6803B1236038BD96
:1012B000B8010020F8B500BFF8BC08BC9E467047D6
:0C12C000F8B500BFF8BC08BC9E467047A3
:1012CC0048656C6C6F20576F726C642E2E2E0A0D55
:1012DC0000232D302B2000686C4C0065666745465A
:1012EC004700303132333435363738394142434494
:1012FC004546003031323334353637383961626324
:04130C0064656600AE
:04131000550100087B
:04131400310100089B
:1013180000000000030000007C0000200000000026
:101328007C000020E40000204C01002000000000A8
:1013380000000000000000000000000000000000A5
:101348000000000000000000000000000000000095
:101358000000000000000000000000000000000085
:0C13680000000000000000000C0000204D
:04000005080003E10B
:00000001FF
