:020000040800F2
:10000000005000207D030008CD030008CD03000848
:10001000CD030008CD030008CD0300080000000058
:10002000000000000000000000000000CD030008F8
:10003000CD03000800000000CD030008CD03000838
:10004000CD030008CD030008CD030008CD03000850
:10005000CD030008CD030008CD030008CD03000840
:10006000CD030008CD030008CD030008CD03000830
:10007000CD030008CD030008CD030008CD03000820
:10008000CD030008CD030008CD030008CD03000810
:10009000CD030008CD030008CD030008CD03000800
:1000A000CD030008CD030008CD030008CD030008F0
:1000B000CD030008CD030008CD030008CD030008E0
:1000C000CD030008CD030008CD030008CD030008D0
:1000D000CD03000805020008CD030008CD03000889
:1000E000CD030008CD03000800000000CD03000888
:1000F000CD030008CD030008CD030008CD030008A0
:10010000CD030008CD030008CD030008CD0300088F
:10011000CD030008CD030008CD030008CD0300087F
:10012000CD030008CD030008CD030008CD0300086F
:1001300010B5054C237833B9044B13B10448AFF321
:1001400000800123237010BD00000020000000008B
:100150001804000808B5034B1BB103490348AFF36B
:10016000008008BD00000000040000201804000802
:1001700080B500AF104B9B690F4A43F010039361A9
:100180000E4B5B680D4A43F4801353600B4B5B6866
:100190000A4A43F400135360084B5B68074A23F490
:1001A00080035360054B5B68044A23F400035360EB
:1001B00000F052F8FEE700BF0010024000100140BE
:1001C00080B400AF0C4B5B68DAB20C4B1A700B4B6F
:1001D0001B78312B06D10A4BDB68094A43F40053E4
:1001E000D36005E0064BDB68054A23F40053D36077
:1001F00000BFBD4680BC7047003801401C00002095
:100200000010014080B500AF044B1B6803F02003D1
:10021000002B01D0FFF7D4FF00BF80BD00380140A4
:1002200080B483B000AF0346FB7197F90730002B11
:100230000BDBFB7903F01F02064997F907305B09D6
:10024000012000FA02F241F8232000BF0C37BD461E
:1002500080BC704700E100E080B500AF304B9B6987
:100260002F4A43F0040393612E4B5B682D4A43F001
:10027000100353602B4B5B682A4A43F02003536002
:10028000284B5B68274A23F040035360254B5B688B
:10029000244A43F080035360224B5B68214A43F4B5
:1002A000807353601F4B5B681E4A43F400735360B6
:1002B0001C4B5B681B4A23F480635360194B5B68DB
:1002C000184A43F400635360174B5B68164A23F0E7
:1002D00004035360124B9B69114A43F480439361BA
:1002E0000F4B9B690E4A43F0010393614FF4E132D7
:1002F0000E490F4800F01EF80D4B0C22DA600C4B33
:10030000DB680B4A43F02003D3602520FFF788FF0A
:10031000074BDB68064A43F40053D36000BF80BD3F
:100320000010024000080140000001400024F400D9
:100330000038014080B584B000AFF860B9607A60E1
:100340007968B86800F008F803461A46FB689A60B6
:1003500000BF1037BD4680BD80B483B000AF786069
:1003600039603B685A087B681A443B68B2FBF3F378
:100370009BB218460C37BD4680BC70470D48854679
:10038000AFF300800C480D490D4A002302E0D45819
:10039000C4500433C4188C42F9D30A4A0A4C0023CF
:1003A00001E013600432A242FBD300F011F8FFF722
:1003B000DFFEFEE7005000200000002000000020CB
:1003C000380400080000002020000020FEE70000A4
:1003D00070B500260C4D0D4C641BA410A64209D12B
:1003E00000F01AF800260A4D0A4C641BA410A6421D
:1003F00005D170BD55F8043B98470136EEE755F836
:10040000043B98470136F2E7300400083004000846
:100410003004000834040008F8B500BFF8BC08BC7C
:100420009E467047F8B500BFF8BC08BC9E467047B2
:04043000550100086A
:04043400310100088A
:040000050800037D6F
:00000001FF
