:020000040800F2
:100000000050002085020008D5020008D502000833
:10001000D5020008D5020008D50200080000000043
:10002000000000000000000000000000D5020008F1
:10003000D502000800000000D5020008D502000823
:10004000D5020008D5020008D5020008D502000834
:10005000D5020008D5020008D5020008D502000824
:10006000D5020008D5020008D5020008D502000814
:10007000D5020008D5020008D5020008D502000804
:10008000D5020008D5020008D5020008D5020008F4
:10009000D5020008D5020008D5020008D5020008E4
:1000A000D5020008D5020008D5020008D5020008D4
:1000B000D5020008D5020008D5020008D5020008C4
:1000C000D5020008D5020008D5020008D5020008B4
:1000D000D5020008D5020008D5020008D5020008A4
:1000E000D5020008D502000800000000D502000873
:1000F000D5020008D5020008D5020008D502000884
:10010000D5020008D5020008D5020008D502000873
:10011000D5020008D5020008D5020008D502000863
:10012000D5020008D5020008D5020008D502000853
:1001300010B5054C237833B9044B13B10448AFF321
:1001400000800123237010BD00000020000000008B
:100150002003000808B5034B1BB103490348AFF364
:10016000008008BD000000000400002020030008FB
:1001700080B500AF00F004F8592000F049F8FBE723
:1001800080B500AF1D4B9B691C4A43F0040393618B
:100190001B4B5B681A4A43F010035360184B5B68B3
:1001A000174A43F020035360154B5B68144A23F051
:1001B00040035360124B5B68114A43F08003536065
:1001C000104B5B680F4A23F0040353600B4B9B6991
:1001D0000A4A43F4005393614FF4E1320A490B4851
:1001E00000F02CF8094B0822DA60084BDB68074A5C
:1001F00043F40053D36000BF80BD00BF0010024035
:1002000000080140000001400024F40000380140D3
:1002100080B483B000AF786000BF074B1B6803F069
:100220008003002BF9D07B68034ADBB2536000BF28
:100230000C37BD4680BC70470038014080B584B0A3
:1002400000AFF860B9607A607968B86800F008F8C3
:1002500003461A46FB689A6000BF1037BD4680BD52
:1002600080B483B000AF786039603B685A087B681F
:100270001A443B68B2FBF3F39BB218460C37BD46F9
:1002800080BC70470D488546AFF300800C480D498F
:100290000D4A002302E0D458C4500433C4188C42E1
:1002A000F9D30A4A0A4C002301E013600432A24247
:1002B000FBD300F011F8FFF75BFFFEE700500020D2
:1002C0000000002000000020400300080000002083
:1002D0001C000020FEE7000070B500260C4D0D4C00
:1002E000641BA410A64209D100F01AF800260A4D9A
:1002F0000A4C641BA410A64205D170BD55F8043BFE
:1003000098470136EEE755F8043B98470136F2E787
:100310003803000838030008380300083C030008CD
:10032000F8B500BFF8BC08BC9E467047F8B500BFE2
:08033000F8BC08BC9E467047B2
:040338005501000863
:04033C003101000883
:040000050800028568
:00000001FF
