:020000040800F2
:100000000050002025030008750300087503000850
:100010007503000875030008750300080000000060
:100020000000000000000000000000007503000850
:100030007503000800000000750300087503000840
:1000400075030008750300087503000875030008B0
:1000500075030008750300087503000875030008A0
:100060007503000875030008750300087503000890
:100070007503000875030008750300087503000880
:100080007503000875030008750300087503000870
:100090007503000875030008750300087503000860
:1000A0007503000875030008750300087503000850
:1000B0007503000875030008750300087503000840
:1000C0007503000875030008750300087503000830
:1000D0007503000875030008750300087503000820
:1000E0007503000875030008000000007503000890
:1000F0007503000875030008750300087503000800
:1001000075030008750300087503000875030008EF
:1001100075030008750300087503000875030008DF
:1001200075030008750300087503000875030008CF
:1001300010B5054C237833B9044B13B10448AFF321
:1001400000800123237010BD00000020000000008B
:10015000C003000808B5034B1BB103490348AFF3C4
:10016000008008BD0000000004000020C00300085B
:1001700080B500AF1A4B9B69194A43F01003936195
:10018000184B5B68174A43F480135360154B5B6848
:10019000144A43F400135360124B5B68114A23F472
:1001A000800353600F4B0F4A5B68536000F01EF8EA
:1001B00000F082F803461A460B4B1A700A4B1B7864
:1001C000312B06D1074BDB68064A43F40053D3605A
:1001D000EEE7044BDB68034A23F40053D360E7E700
:1001E00000100240001001401C00002080B500AF4C
:1001F0002C4B9B692B4A43F0040393612A4B5B68A9
:10020000294A43F010035360274B5B68264A43F0AA
:1002100020035360244B5B68234A23F04003536060
:10022000214B5B68204A43F0800353601E4B5B68A0
:100230001D4A43F4807353601B4B5B681A4A43F4B6
:1002400000735360184B5B68174A23F48063536054
:10025000154B5B68144A43F400635360134B5B68AF
:10026000124A23F0040353600E4B9B690D4A43F47A
:10027000804393610B4B9B690A4A43F001039361EE
:100280004FF4E1320A490B4800F028F8094B0C22E0
:10029000DA60084BDB68074A43F40053D36000BFC1
:1002A00080BD00BF00100240000801400000014076
:1002B0000024F4000038014080B400AF00BF064BBA
:1002C0001B6803F02003002BF9D0034B5B68DBB203
:1002D0001846BD4680BC70470038014080B584B0E8
:1002E00000AFF860B9607A607968B86800F008F823
:1002F00003461A46FB689A6000BF1037BD4680BDB2
:1003000080B483B000AF786039603B685A087B687E
:100310001A443B68B2FBF3F39BB218460C37BD4658
:1003200080BC70470D488546AFF300800C480D49EE
:100330000D4A002302E0D458C4500433C4188C4240
:10034000F9D30A4A0A4C002301E013600432A242A6
:10035000FBD300F011F8FFF70BFFFEE70050002081
:100360000000002000000020E00300080000002042
:1003700020000020FEE7000070B500260C4D0D4C5B
:10038000641BA410A64209D100F01AF800260A4DF9
:100390000A4C641BA410A64205D170BD55F8043B5D
:1003A00098470136EEE755F8043B98470136F2E7E7
:1003B000D8030008D8030008D8030008DC030008AD
:1003C000F8B500BFF8BC08BC9E467047F8B500BF42
:0803D000F8BC08BC9E46704712
:0403D80055010008C3
:0403DC0031010008E3
:0400000508000325C7
:00000001FF
