:020000040800F2
:1000000000500020D5020008250300082503000841
:100010002503000825030008250300080000000050
:1000200000000000000000000000000025030008A0
:100030002503000800000000250300082503000830
:1000400025030008250300082503000825030008F0
:1000500025030008250300082503000825030008E0
:1000600025030008250300082503000825030008D0
:1000700025030008250300082503000825030008C0
:1000800025030008250300082503000825030008B0
:1000900025030008250300082503000825030008A0
:1000A0002503000825030008250300082503000890
:1000B0002503000825030008250300082503000880
:1000C0002503000825030008250300082503000870
:1000D0002503000825030008250300082503000860
:1000E0002503000825030008000000002503000880
:1000F0002503000825030008250300082503000840
:10010000250300082503000825030008250300082F
:10011000250300082503000825030008250300081F
:10012000250300082503000825030008250300080F
:1001300010B5054C237833B9044B13B10448AFF321
:1001400000800123237010BD00000020000000008B
:100150007003000808B5034B1BB103490348AFF314
:10016000008008BD000000000400002070030008AB
:1001700080B500AF00F014F800F066F800BF064B41
:100180001B6903F00203002BF9D0034B5B6B1A468B
:10019000024B1A60F2E700BF000400401C00002080
:1001A00080B400AF254B9B69244A43F0040393615C
:1001B000234B1B68224A43F001031360204B1B684A
:1001C0001F4A43F0020313601D4B1B681C4A63F077
:1001D000040313601A4B1B68194A43F008031360A9
:1001E000184B5B68174A23F480735360134BDB6929
:1001F000124A43F00103D3614FF0804340F23F6263
:100200009A624FF0804342F20F72DA624FF08043FD
:1002100030229A614FF080431B6A4FF0804243F0D6
:10022000010313624FF0804300225A624FF0804373
:1002300001221A6000BFBD4680BC7047001002401A
:10024000000801400000014080B400AF1D4B9B69D5
:100250001C4A43F0040393611B4B1B681A4A43F08A
:1002600080731360184B1B68174A43F000731360C8
:10027000154B1B68144A63F080631360124B1B68B4
:10028000114A43F000631360104B5B680F4A23F47C
:10029000806353600B4BDB690A4A43F00203D3616E
:1002A0000B4B43F67F629A62094B01229A61084B1D
:1002B00001221A62064B01221A6000BFBD4680BCB3
:1002C000704700BF001002400008014000000140DC
:1002D000000400400D488546AFF300800C480D49EE
:1002E0000D4A002302E0D458C4500433C4188C4291
:1002F000F9D30A4A0A4C002301E013600432A242F7
:10030000FBD300F011F8FFF733FFFEE700500020A9
:1003100000000020000000209003000800000020E2
:1003200020000020FEE7000070B500260C4D0D4CAB
:10033000641BA410A64209D100F01AF800260A4D49
:100340000A4C641BA410A64205D170BD55F8043BAD
:1003500098470136EEE755F8043B98470136F2E737
:100360008803000888030008880300088C0300083D
:10037000F8B500BFF8BC08BC9E467047F8B500BF92
:08038000F8BC08BC9E46704762
:040388005501000813
:04038C003101000833
:04000005080002D518
:00000001FF
