:020000040800F2
:100000000050002015020008650200086502000883
:100010006502000865020008650200080000000093
:100020000000000000000000000000006502000861
:100030006502000800000000650200086502000873
:1000400065020008650200086502000865020008F4
:1000500065020008650200086502000865020008E4
:1000600065020008650200086502000865020008D4
:1000700065020008650200086502000865020008C4
:1000800065020008650200086502000865020008B4
:1000900065020008650200086502000865020008A4
:1000A0006502000865020008650200086502000894
:1000B0006502000865020008650200086502000884
:1000C0006502000865020008650200086502000874
:1000D0006502000865020008650200086502000864
:1000E00065020008650200080000000065020008C3
:1000F0006502000865020008650200086502000844
:100100006502000865020008650200086502000833
:100110006502000865020008650200086502000823
:100120006502000865020008650200086502000813
:1001300010B5054C237833B9044B13B10448AFF321
:1001400000800123237010BD00000020000000008B
:10015000B002000808B5034B1BB103490348AFF3D5
:10016000008008BD0000000004000020B00200086C
:1001700080B400AF244B9B69234A43F01003936182
:10018000214B9B69204A43F0080393611F4B5B6836
:100190001E4A43F4801353601C4B5B681B4A43F4B4
:1001A00000135360194B5B68184A23F480035360B3
:1001B000164B164A5B685360154B5B68144A23F470
:1001C00080335360124B5B68114A23F40033536051
:1001D0000F4B5B680E4A43F4802353600C4B5B6803
:1001E0000B4A23F400235360094B9B6803F400631C
:1001F000002B04D1054B4FF400521A61F4E7034B76
:100200004FF000521A61EFE7001002400010014069
:10021000000C01400D488546AFF300800C480D49A5
:100220000D4A002302E0D458C4500433C4188C4251
:10023000F9D30A4A0A4C002301E013600432A242B7
:10024000FBD300F011F8FFF793FFFEE7005000200A
:100250000000002000000020D00200080000002064
:100260001C000020FEE7000070B500260C4D0D4C70
:10027000641BA410A64209D100F01AF800260A4D0A
:100280000A4C641BA410A64205D170BD55F8043B6E
:1002900098470136EEE755F8043B98470136F2E7F8
:1002A000C8020008C8020008C8020008CC02000802
:1002B000F8B500BFF8BC08BC9E467047F8B500BF53
:0802C000F8BC08BC9E46704723
:0402C80055010008D4
:0402CC0031010008F4
:0400000508000215D8
:00000001FF
